:030000000201BA40
:0100030032CA
:03000B0002011DD2
:0100130032BA
:01001B0032B2
:0100230032AA
:03002B0002014887
:10002E00C00078B10000D8FCD00022C000C0017919
:10003E002D78A6D8FED9FADAF6D001D00022D2B3A6
:10004E0012002EC2B322A2E792B7A2E692B6A2E5A2
:10005E0092B5A2E492B412004C12002EA2E392B713
:10006E00A2E292B6A2E192B5A2E092B412004C22A4
:10007E00D2B2020054C2B2020054C2B374331200A0
:10008E008374331200837432120083742812008337
:10009E00740C1200837401120083C0027A021200E3
:1000AE0039D00222E493600612007EA380F6224429
:1000BE00404480020083C0E0E8C4540F4430120074
:1000CE007EE8540F443012007ED0E02223233A23E0
:1000DE0023202A4D202020414C41524D0023233A0B
:1000EE0023233A2323202A4D20202A2A2A004F4E4A
:1000FE0020004F464600E58954F04401F589758C81
:10010E00EA758AE875F4EA75F2E8D2A9D28C22C2B1
:10011E008DB29132753412C201750241C204750559
:10012E004175C80075CDA975CC9A75CBA975CA9ABB
:10013E00E4F530F531D2ADD2CA22C2CFB290C0E0D2
:10014E00C0D00530E53070020531E530B46458E5B5
:10015E0031B40053D200B28CE4F530F531E53230D3
:10016E00A42330C51024018000D4F532B4603802C7
:10017E000180753200E5332401D4F533B4602802D2
:10018E000190753300E5342401D4F534B4120DB268
:10019E00012001057502418003750250E534B41348
:1001AE00060201B2753401D0D0D0E03275817F12D3
:1001BE00010412012275E60075E700D2AF12008825
:1001CE00C0E07401141200BFD0E0C083C082C0E052
:1001DE009000DA1200B2D0E0D082D083C0E0740179
:1001EE00141200BDD0E0C083C082C0E09000EB12BC
:1001FE0000B2D0E0D082D083C203C0E0740E1412DD
:10020E0000BDD0E0C083C082C0E09001001200B2F9
:10021E00D0E0D082D083753512C0E0740114120084
:10022E00BFD0E0C000A8351200C4D000753600C0A3
:10023E00E07404141200BFD0E0C000A8361200C44F
:10024E00D000C0E07407141200BFD0E0C0E07441CB
:10025E0012007ED0E0D20075320075330020841279
:10026E00C0027A32120039D0022084063084FD0298
:10027E000295208644C0027A32120039D0022086BE
:10028E00383086FD0202A5E5362401D4F536B46079
:10029E00E10202A2753600E5352401D4F535B4121B
:1002AE000DB2042004057505418003750550E53532
:1002BE00B413AA0202C475350120804FC0027A32EF
:1002CE00120039D0022080433080FDB20320031F7C
:1002DE00C0E0740E141200BDD0E0C083C082C0E036
:1002EE009001001200B2D0E0D082D083020319C078
:1002FE00E0740E141200BDD0E0C083C082C0E09046
:10030E0000FC1200B2D0E0D082D083E5348535F007
:10031E00B5F021E5338536F0B5F01930031620011E
:10032E000302033A30040DD2A9020347200405D27A
:10033E00A9020347C2A9020347C200C0E074011418
:10034E001200BFD0E0C000A8351200C4D000C0E03B
:10035E007404141200BFD0E0C000A8361200C4D03E
:10036E0000C0E07407141200BFD0E0C0E0E5051233
:10037E00007ED0E0C0E07401141200BDD0E0C000D9
:10038E00A8341200C4D000C0E07404141200BDD012
:10039E00E0C000A8331200C4D000C0E074071412ED
:1003AE0000BDD0E0C000A8321200C4D000C0E0747E
:1003BE000A141200BDD0E0C0E0E50212007ED0E0CB
:0303CE0002026BBD
:00000001FF
